{
  "address": "0xe94816c55b6B6f85c3Bd9d0d47bb567EdEf1Bc48",
  "abi": [
    {
      "inputs": [
        {
          "internalType": "contract ICarbonController",
          "name": "carbonController",
          "type": "address"
        },
        {
          "internalType": "contract IVault",
          "name": "vault",
          "type": "address"
        },
        {
          "internalType": "Token",
          "name": "targetTokenInit",
          "type": "address"
        },
        {
          "internalType": "Token",
          "name": "finalTargetTokenInit",
          "type": "address"
        }
      ],
      "stateMutability": "nonpayable",
      "type": "constructor"
    },
    {
      "inputs": [],
      "name": "AccessDenied",
      "type": "error"
    },
    {
      "inputs": [],
      "name": "AlreadyInitialized",
      "type": "error"
    },
    {
      "inputs": [],
      "name": "DuplicateToken",
      "type": "error"
    },
    {
      "inputs": [],
      "name": "GreaterThanMaxInput",
      "type": "error"
    },
    {
      "inputs": [],
      "name": "InsufficientAmountForTrading",
      "type": "error"
    },
    {
      "inputs": [],
      "name": "InsufficientNativeTokenSent",
      "type": "error"
    },
    {
      "inputs": [],
      "name": "InvalidAddress",
      "type": "error"
    },
    {
      "inputs": [],
      "name": "InvalidAmountLength",
      "type": "error"
    },
    {
      "inputs": [],
      "name": "InvalidFee",
      "type": "error"
    },
    {
      "inputs": [],
      "name": "InvalidPrice",
      "type": "error"
    },
    {
      "inputs": [],
      "name": "InvalidToken",
      "type": "error"
    },
    {
      "inputs": [],
      "name": "InvalidTokenLength",
      "type": "error"
    },
    {
      "inputs": [],
      "name": "InvalidTrade",
      "type": "error"
    },
    {
      "inputs": [],
      "name": "Overflow",
      "type": "error"
    },
    {
      "inputs": [],
      "name": "PairDisabled",
      "type": "error"
    },
    {
      "inputs": [],
      "name": "TradingDisabled",
      "type": "error"
    },
    {
      "inputs": [],
      "name": "UnnecessaryNativeTokenReceived",
      "type": "error"
    },
    {
      "inputs": [],
      "name": "ZeroValue",
      "type": "error"
    },
    {
      "anonymous": false,
      "inputs": [
        {
          "indexed": true,
          "internalType": "Token[]",
          "name": "tokens",
          "type": "address[]"
        },
        {
          "indexed": true,
          "internalType": "address",
          "name": "caller",
          "type": "address"
        },
        {
          "indexed": true,
          "internalType": "address",
          "name": "target",
          "type": "address"
        },
        {
          "indexed": false,
          "internalType": "uint256[]",
          "name": "amounts",
          "type": "uint256[]"
        }
      ],
      "name": "FundsWithdrawn",
      "type": "event"
    },
    {
      "anonymous": false,
      "inputs": [
        {
          "indexed": false,
          "internalType": "uint8",
          "name": "version",
          "type": "uint8"
        }
      ],
      "name": "Initialized",
      "type": "event"
    },
    {
      "anonymous": false,
      "inputs": [
        {
          "indexed": false,
          "internalType": "uint128",
          "name": "prevTargetTokenSaleAmount",
          "type": "uint128"
        },
        {
          "indexed": false,
          "internalType": "uint128",
          "name": "newTargetTokenSaleAmount",
          "type": "uint128"
        }
      ],
      "name": "MaxTargetTokenSaleAmountUpdated",
      "type": "event"
    },
    {
      "anonymous": false,
      "inputs": [
        {
          "indexed": false,
          "internalType": "uint32",
          "name": "prevMinTokenSaleAmountMultiplier",
          "type": "uint32"
        },
        {
          "indexed": false,
          "internalType": "uint32",
          "name": "newMinTokenSaleAmountMultiplier",
          "type": "uint32"
        }
      ],
      "name": "MinTokenSaleAmountMultiplierUpdated",
      "type": "event"
    },
    {
      "anonymous": false,
      "inputs": [
        {
          "indexed": true,
          "internalType": "Token",
          "name": "token",
          "type": "address"
        },
        {
          "indexed": false,
          "internalType": "uint128",
          "name": "prevMinTokenSaleAmount",
          "type": "uint128"
        },
        {
          "indexed": false,
          "internalType": "uint128",
          "name": "newMinTokenSaleAmount",
          "type": "uint128"
        }
      ],
      "name": "MinTokenSaleAmountUpdated",
      "type": "event"
    },
    {
      "anonymous": false,
      "inputs": [
        {
          "indexed": true,
          "internalType": "Token",
          "name": "token",
          "type": "address"
        },
        {
          "indexed": false,
          "internalType": "bool",
          "name": "prevStatus",
          "type": "bool"
        },
        {
          "indexed": false,
          "internalType": "bool",
          "name": "newStatus",
          "type": "bool"
        }
      ],
      "name": "PairDisabledStatusUpdated",
      "type": "event"
    },
    {
      "anonymous": false,
      "inputs": [
        {
          "indexed": false,
          "internalType": "uint32",
          "name": "prevPriceDecayHalfLife",
          "type": "uint32"
        },
        {
          "indexed": false,
          "internalType": "uint32",
          "name": "newPriceDecayHalfLife",
          "type": "uint32"
        }
      ],
      "name": "PriceDecayHalfLifeUpdated",
      "type": "event"
    },
    {
      "anonymous": false,
      "inputs": [
        {
          "indexed": false,
          "internalType": "uint32",
          "name": "prevPriceResetMultiplier",
          "type": "uint32"
        },
        {
          "indexed": false,
          "internalType": "uint32",
          "name": "newPriceResetMultiplier",
          "type": "uint32"
        }
      ],
      "name": "PriceResetMultiplierUpdated",
      "type": "event"
    },
    {
      "anonymous": false,
      "inputs": [
        {
          "indexed": true,
          "internalType": "Token",
          "name": "token",
          "type": "address"
        },
        {
          "components": [
            {
              "internalType": "uint128",
              "name": "sourceAmount",
              "type": "uint128"
            },
            {
              "internalType": "uint128",
              "name": "targetAmount",
              "type": "uint128"
            }
          ],
          "indexed": false,
          "internalType": "struct ICarbonVortex.Price",
          "name": "price",
          "type": "tuple"
        }
      ],
      "name": "PriceUpdated",
      "type": "event"
    },
    {
      "anonymous": false,
      "inputs": [
        {
          "indexed": false,
          "internalType": "uint32",
          "name": "prevRewardsPPM",
          "type": "uint32"
        },
        {
          "indexed": false,
          "internalType": "uint32",
          "name": "newRewardsPPM",
          "type": "uint32"
        }
      ],
      "name": "RewardsUpdated",
      "type": "event"
    },
    {
      "anonymous": false,
      "inputs": [
        {
          "indexed": true,
          "internalType": "bytes32",
          "name": "role",
          "type": "bytes32"
        },
        {
          "indexed": true,
          "internalType": "bytes32",
          "name": "previousAdminRole",
          "type": "bytes32"
        },
        {
          "indexed": true,
          "internalType": "bytes32",
          "name": "newAdminRole",
          "type": "bytes32"
        }
      ],
      "name": "RoleAdminChanged",
      "type": "event"
    },
    {
      "anonymous": false,
      "inputs": [
        {
          "indexed": true,
          "internalType": "bytes32",
          "name": "role",
          "type": "bytes32"
        },
        {
          "indexed": true,
          "internalType": "address",
          "name": "account",
          "type": "address"
        },
        {
          "indexed": true,
          "internalType": "address",
          "name": "sender",
          "type": "address"
        }
      ],
      "name": "RoleGranted",
      "type": "event"
    },
    {
      "anonymous": false,
      "inputs": [
        {
          "indexed": true,
          "internalType": "bytes32",
          "name": "role",
          "type": "bytes32"
        },
        {
          "indexed": true,
          "internalType": "address",
          "name": "account",
          "type": "address"
        },
        {
          "indexed": true,
          "internalType": "address",
          "name": "sender",
          "type": "address"
        }
      ],
      "name": "RoleRevoked",
      "type": "event"
    },
    {
      "anonymous": false,
      "inputs": [
        {
          "indexed": false,
          "internalType": "uint32",
          "name": "prevPriceDecayHalfLife",
          "type": "uint32"
        },
        {
          "indexed": false,
          "internalType": "uint32",
          "name": "newPriceDecayHalfLife",
          "type": "uint32"
        }
      ],
      "name": "TargetTokenPriceDecayHalfLifeOnResetUpdated",
      "type": "event"
    },
    {
      "anonymous": false,
      "inputs": [
        {
          "indexed": false,
          "internalType": "uint32",
          "name": "prevPriceDecayHalfLife",
          "type": "uint32"
        },
        {
          "indexed": false,
          "internalType": "uint32",
          "name": "newPriceDecayHalfLife",
          "type": "uint32"
        }
      ],
      "name": "TargetTokenPriceDecayHalfLifeUpdated",
      "type": "event"
    },
    {
      "anonymous": false,
      "inputs": [
        {
          "indexed": true,
          "internalType": "address",
          "name": "caller",
          "type": "address"
        },
        {
          "indexed": true,
          "internalType": "Token",
          "name": "token",
          "type": "address"
        },
        {
          "indexed": false,
          "internalType": "uint128",
          "name": "sourceAmount",
          "type": "uint128"
        },
        {
          "indexed": false,
          "internalType": "uint128",
          "name": "targetAmount",
          "type": "uint128"
        }
      ],
      "name": "TokenTraded",
      "type": "event"
    },
    {
      "anonymous": false,
      "inputs": [
        {
          "indexed": true,
          "internalType": "Token",
          "name": "token",
          "type": "address"
        },
        {
          "components": [
            {
              "internalType": "uint128",
              "name": "sourceAmount",
              "type": "uint128"
            },
            {
              "internalType": "uint128",
              "name": "targetAmount",
              "type": "uint128"
            }
          ],
          "indexed": false,
          "internalType": "struct ICarbonVortex.Price",
          "name": "price",
          "type": "tuple"
        }
      ],
      "name": "TradingReset",
      "type": "event"
    },
    {
      "anonymous": false,
      "inputs": [
        {
          "indexed": true,
          "internalType": "address",
          "name": "prevTransferAddress",
          "type": "address"
        },
        {
          "indexed": true,
          "internalType": "address",
          "name": "newTransferAddress",
          "type": "address"
        }
      ],
      "name": "TransferAddressUpdated",
      "type": "event"
    },
    {
      "inputs": [],
      "name": "DEFAULT_ADMIN_ROLE",
      "outputs": [
        {
          "internalType": "bytes32",
          "name": "",
          "type": "bytes32"
        }
      ],
      "stateMutability": "view",
      "type": "function"
    },
    {
      "inputs": [
        {
          "internalType": "Token",
          "name": "token",
          "type": "address"
        }
      ],
      "name": "amountAvailableForTrading",
      "outputs": [
        {
          "internalType": "uint128",
          "name": "",
          "type": "uint128"
        }
      ],
      "stateMutability": "view",
      "type": "function"
    },
    {
      "inputs": [
        {
          "internalType": "Token",
          "name": "token",
          "type": "address"
        }
      ],
      "name": "availableTokens",
      "outputs": [
        {
          "internalType": "uint256",
          "name": "",
          "type": "uint256"
        }
      ],
      "stateMutability": "view",
      "type": "function"
    },
    {
      "inputs": [
        {
          "internalType": "Token",
          "name": "token",
          "type": "address"
        },
        {
          "internalType": "bool",
          "name": "disabled",
          "type": "bool"
        }
      ],
      "name": "disablePair",
      "outputs": [],
      "stateMutability": "nonpayable",
      "type": "function"
    },
    {
      "inputs": [
        {
          "internalType": "Token[]",
          "name": "tokens",
          "type": "address[]"
        }
      ],
      "name": "execute",
      "outputs": [],
      "stateMutability": "nonpayable",
      "type": "function"
    },
    {
      "inputs": [
        {
          "internalType": "Token",
          "name": "token",
          "type": "address"
        },
        {
          "internalType": "uint128",
          "name": "targetAmount",
          "type": "uint128"
        }
      ],
      "name": "expectedTradeInput",
      "outputs": [
        {
          "internalType": "uint128",
          "name": "",
          "type": "uint128"
        }
      ],
      "stateMutability": "view",
      "type": "function"
    },
    {
      "inputs": [
        {
          "internalType": "Token",
          "name": "token",
          "type": "address"
        },
        {
          "internalType": "uint128",
          "name": "sourceAmount",
          "type": "uint128"
        }
      ],
      "name": "expectedTradeReturn",
      "outputs": [
        {
          "internalType": "uint128",
          "name": "",
          "type": "uint128"
        }
      ],
      "stateMutability": "view",
      "type": "function"
    },
    {
      "inputs": [],
      "name": "finalTargetToken",
      "outputs": [
        {
          "internalType": "Token",
          "name": "",
          "type": "address"
        }
      ],
      "stateMutability": "view",
      "type": "function"
    },
    {
      "inputs": [
        {
          "internalType": "bytes32",
          "name": "role",
          "type": "bytes32"
        }
      ],
      "name": "getRoleAdmin",
      "outputs": [
        {
          "internalType": "bytes32",
          "name": "",
          "type": "bytes32"
        }
      ],
      "stateMutability": "view",
      "type": "function"
    },
    {
      "inputs": [
        {
          "internalType": "bytes32",
          "name": "role",
          "type": "bytes32"
        },
        {
          "internalType": "uint256",
          "name": "index",
          "type": "uint256"
        }
      ],
      "name": "getRoleMember",
      "outputs": [
        {
          "internalType": "address",
          "name": "",
          "type": "address"
        }
      ],
      "stateMutability": "view",
      "type": "function"
    },
    {
      "inputs": [
        {
          "internalType": "bytes32",
          "name": "role",
          "type": "bytes32"
        }
      ],
      "name": "getRoleMemberCount",
      "outputs": [
        {
          "internalType": "uint256",
          "name": "",
          "type": "uint256"
        }
      ],
      "stateMutability": "view",
      "type": "function"
    },
    {
      "inputs": [
        {
          "internalType": "bytes32",
          "name": "role",
          "type": "bytes32"
        },
        {
          "internalType": "address",
          "name": "account",
          "type": "address"
        }
      ],
      "name": "grantRole",
      "outputs": [],
      "stateMutability": "nonpayable",
      "type": "function"
    },
    {
      "inputs": [
        {
          "internalType": "bytes32",
          "name": "role",
          "type": "bytes32"
        },
        {
          "internalType": "address",
          "name": "account",
          "type": "address"
        }
      ],
      "name": "hasRole",
      "outputs": [
        {
          "internalType": "bool",
          "name": "",
          "type": "bool"
        }
      ],
      "stateMutability": "view",
      "type": "function"
    },
    {
      "inputs": [
        {
          "internalType": "address payable",
          "name": "transferAddressInit",
          "type": "address"
        }
      ],
      "name": "initialize",
      "outputs": [],
      "stateMutability": "nonpayable",
      "type": "function"
    },
    {
      "inputs": [],
      "name": "minTargetTokenSaleAmount",
      "outputs": [
        {
          "internalType": "uint128",
          "name": "",
          "type": "uint128"
        }
      ],
      "stateMutability": "view",
      "type": "function"
    },
    {
      "inputs": [
        {
          "internalType": "Token",
          "name": "token",
          "type": "address"
        }
      ],
      "name": "minTokenSaleAmount",
      "outputs": [
        {
          "internalType": "uint128",
          "name": "",
          "type": "uint128"
        }
      ],
      "stateMutability": "view",
      "type": "function"
    },
    {
      "inputs": [],
      "name": "minTokenSaleAmountMultiplier",
      "outputs": [
        {
          "internalType": "uint32",
          "name": "",
          "type": "uint32"
        }
      ],
      "stateMutability": "view",
      "type": "function"
    },
    {
      "inputs": [
        {
          "internalType": "Token",
          "name": "token",
          "type": "address"
        }
      ],
      "name": "pairDisabled",
      "outputs": [
        {
          "internalType": "bool",
          "name": "",
          "type": "bool"
        }
      ],
      "stateMutability": "view",
      "type": "function"
    },
    {
      "inputs": [
        {
          "internalType": "bool",
          "name": "checkVersion",
          "type": "bool"
        },
        {
          "internalType": "bytes",
          "name": "data",
          "type": "bytes"
        }
      ],
      "name": "postUpgrade",
      "outputs": [],
      "stateMutability": "nonpayable",
      "type": "function"
    },
    {
      "inputs": [],
      "name": "priceDecayHalfLife",
      "outputs": [
        {
          "internalType": "uint32",
          "name": "",
          "type": "uint32"
        }
      ],
      "stateMutability": "view",
      "type": "function"
    },
    {
      "inputs": [],
      "name": "priceResetMultiplier",
      "outputs": [
        {
          "internalType": "uint32",
          "name": "",
          "type": "uint32"
        }
      ],
      "stateMutability": "view",
      "type": "function"
    },
    {
      "inputs": [
        {
          "internalType": "bytes32",
          "name": "role",
          "type": "bytes32"
        },
        {
          "internalType": "address",
          "name": "account",
          "type": "address"
        }
      ],
      "name": "renounceRole",
      "outputs": [],
      "stateMutability": "nonpayable",
      "type": "function"
    },
    {
      "inputs": [
        {
          "internalType": "bytes32",
          "name": "role",
          "type": "bytes32"
        },
        {
          "internalType": "address",
          "name": "account",
          "type": "address"
        }
      ],
      "name": "revokeRole",
      "outputs": [],
      "stateMutability": "nonpayable",
      "type": "function"
    },
    {
      "inputs": [],
      "name": "rewardsPPM",
      "outputs": [
        {
          "internalType": "uint32",
          "name": "",
          "type": "uint32"
        }
      ],
      "stateMutability": "view",
      "type": "function"
    },
    {
      "inputs": [],
      "name": "roleAdmin",
      "outputs": [
        {
          "internalType": "bytes32",
          "name": "",
          "type": "bytes32"
        }
      ],
      "stateMutability": "pure",
      "type": "function"
    },
    {
      "inputs": [
        {
          "internalType": "uint128",
          "name": "newMaxTargetTokenSaleAmount",
          "type": "uint128"
        }
      ],
      "name": "setMaxTargetTokenSaleAmount",
      "outputs": [],
      "stateMutability": "nonpayable",
      "type": "function"
    },
    {
      "inputs": [
        {
          "internalType": "uint128",
          "name": "newMinTargetTokenSaleAmount",
          "type": "uint128"
        }
      ],
      "name": "setMinTargetTokenSaleAmount",
      "outputs": [],
      "stateMutability": "nonpayable",
      "type": "function"
    },
    {
      "inputs": [
        {
          "internalType": "uint32",
          "name": "newMinTokenSaleAmountMultiplier",
          "type": "uint32"
        }
      ],
      "name": "setMinTokenSaleAmountMultiplier",
      "outputs": [],
      "stateMutability": "nonpayable",
      "type": "function"
    },
    {
      "inputs": [
        {
          "internalType": "uint32",
          "name": "newPriceDecayHalfLife",
          "type": "uint32"
        }
      ],
      "name": "setPriceDecayHalfLife",
      "outputs": [],
      "stateMutability": "nonpayable",
      "type": "function"
    },
    {
      "inputs": [
        {
          "internalType": "uint32",
          "name": "newPriceResetMultiplier",
          "type": "uint32"
        }
      ],
      "name": "setPriceResetMultiplier",
      "outputs": [],
      "stateMutability": "nonpayable",
      "type": "function"
    },
    {
      "inputs": [
        {
          "internalType": "uint32",
          "name": "newRewardsPPM",
          "type": "uint32"
        }
      ],
      "name": "setRewardsPPM",
      "outputs": [],
      "stateMutability": "nonpayable",
      "type": "function"
    },
    {
      "inputs": [
        {
          "internalType": "uint32",
          "name": "newPriceDecayHalfLife",
          "type": "uint32"
        }
      ],
      "name": "setTargetTokenPriceDecayHalfLife",
      "outputs": [],
      "stateMutability": "nonpayable",
      "type": "function"
    },
    {
      "inputs": [
        {
          "internalType": "uint32",
          "name": "newPriceDecayHalfLife",
          "type": "uint32"
        }
      ],
      "name": "setTargetTokenPriceDecayHalfLifeOnReset",
      "outputs": [],
      "stateMutability": "nonpayable",
      "type": "function"
    },
    {
      "inputs": [
        {
          "internalType": "address",
          "name": "newTransferAddress",
          "type": "address"
        }
      ],
      "name": "setTransferAddress",
      "outputs": [],
      "stateMutability": "nonpayable",
      "type": "function"
    },
    {
      "inputs": [
        {
          "internalType": "bytes4",
          "name": "interfaceId",
          "type": "bytes4"
        }
      ],
      "name": "supportsInterface",
      "outputs": [
        {
          "internalType": "bool",
          "name": "",
          "type": "bool"
        }
      ],
      "stateMutability": "view",
      "type": "function"
    },
    {
      "inputs": [],
      "name": "targetToken",
      "outputs": [
        {
          "internalType": "Token",
          "name": "",
          "type": "address"
        }
      ],
      "stateMutability": "view",
      "type": "function"
    },
    {
      "inputs": [],
      "name": "targetTokenPriceDecayHalfLife",
      "outputs": [
        {
          "internalType": "uint32",
          "name": "",
          "type": "uint32"
        }
      ],
      "stateMutability": "view",
      "type": "function"
    },
    {
      "inputs": [],
      "name": "targetTokenPriceDecayHalfLifeOnReset",
      "outputs": [
        {
          "internalType": "uint32",
          "name": "",
          "type": "uint32"
        }
      ],
      "stateMutability": "view",
      "type": "function"
    },
    {
      "inputs": [],
      "name": "targetTokenSaleAmount",
      "outputs": [
        {
          "components": [
            {
              "internalType": "uint128",
              "name": "initial",
              "type": "uint128"
            },
            {
              "internalType": "uint128",
              "name": "current",
              "type": "uint128"
            }
          ],
          "internalType": "struct ICarbonVortex.SaleAmount",
          "name": "",
          "type": "tuple"
        }
      ],
      "stateMutability": "view",
      "type": "function"
    },
    {
      "inputs": [
        {
          "internalType": "Token",
          "name": "token",
          "type": "address"
        }
      ],
      "name": "tokenPrice",
      "outputs": [
        {
          "components": [
            {
              "internalType": "uint128",
              "name": "sourceAmount",
              "type": "uint128"
            },
            {
              "internalType": "uint128",
              "name": "targetAmount",
              "type": "uint128"
            }
          ],
          "internalType": "struct ICarbonVortex.Price",
          "name": "",
          "type": "tuple"
        }
      ],
      "stateMutability": "view",
      "type": "function"
    },
    {
      "inputs": [],
      "name": "totalCollected",
      "outputs": [
        {
          "internalType": "uint256",
          "name": "",
          "type": "uint256"
        }
      ],
      "stateMutability": "view",
      "type": "function"
    },
    {
      "inputs": [
        {
          "internalType": "Token",
          "name": "token",
          "type": "address"
        },
        {
          "internalType": "uint128",
          "name": "targetAmount",
          "type": "uint128"
        },
        {
          "internalType": "uint128",
          "name": "maxInput",
          "type": "uint128"
        }
      ],
      "name": "trade",
      "outputs": [],
      "stateMutability": "payable",
      "type": "function"
    },
    {
      "inputs": [
        {
          "internalType": "Token",
          "name": "token",
          "type": "address"
        }
      ],
      "name": "tradingEnabled",
      "outputs": [
        {
          "internalType": "bool",
          "name": "",
          "type": "bool"
        }
      ],
      "stateMutability": "view",
      "type": "function"
    },
    {
      "inputs": [],
      "name": "transferAddress",
      "outputs": [
        {
          "internalType": "address",
          "name": "",
          "type": "address"
        }
      ],
      "stateMutability": "view",
      "type": "function"
    },
    {
      "inputs": [],
      "name": "version",
      "outputs": [
        {
          "internalType": "uint16",
          "name": "",
          "type": "uint16"
        }
      ],
      "stateMutability": "pure",
      "type": "function"
    },
    {
      "inputs": [
        {
          "internalType": "Token[]",
          "name": "tokens",
          "type": "address[]"
        },
        {
          "internalType": "address payable",
          "name": "target",
          "type": "address"
        },
        {
          "internalType": "uint256[]",
          "name": "amounts",
          "type": "uint256[]"
        }
      ],
      "name": "withdrawFunds",
      "outputs": [],
      "stateMutability": "nonpayable",
      "type": "function"
    },
    {
      "stateMutability": "payable",
      "type": "receive"
    }
  ],
  "transactionHash": "0xc330dd1b5edc8d8f312d647599b75f018aed512150f68009ab630c21a0a73839",
  "args": [
    "0x7EDB41646A670Dfd31DCb21037F42b327e66aFeD",
    "0x0000000000000000000000000000000000000000",
    "0xEeeeeEeeeEeEeeEeEeEeeEEEeeeeEeeeeeeeEEeE",
    "0x0000000000000000000000000000000000000000"
  ],
  "numDeployments": 1,
  "solcInputHash": "9d1e976b58b910207bc3c31f7a695c41",
  "bytecode": "0x6101006040523480156200001257600080fd5b506040516200507f3803806200507f833981016040819052620000359162000177565b81620000418162000075565b6001600160a01b0380861660805284811660a05283811660c052821660e0526200006a620000a0565b5050505050620001df565b6001600160a01b0381166200009d5760405163e6c4247b60e01b815260040160405180910390fd5b50565b600054610100900460ff16156200010d5760405162461bcd60e51b815260206004820152602760248201527f496e697469616c697a61626c653a20636f6e747261637420697320696e697469604482015266616c697a696e6760c81b606482015260840160405180910390fd5b60005460ff908116146200015f576000805460ff191660ff9081179091556040519081527f7f26b83ff96e1f2b6a682f133852f6798a09c465da95921460cefb38474024989060200160405180910390a15b565b6001600160a01b03811681146200009d57600080fd5b600080600080608085870312156200018e57600080fd5b84516200019b8162000161565b6020860151909450620001ae8162000161565b6040860151909350620001c18162000161565b6060860151909250620001d48162000161565b939692955090935050565b60805160a05160c05160e051614d2b620003546000396000818161048c01528181610e9e01528181610f2301528181612a8d01528181612af801528181612b6d01528181612be001528181612c180152818161306a01526131110152600081816103a60152818161089801528181610eec01528181610f540152818161128301528181611884015281816119a401528181611fc401528181612073015281816120f50152818161212f015281816121ac015281816125a8015281816129ff01528181612bab01528181612ccc01528181612d3101528181612d7c01528181612ddd01528181612e5d01528181612f3a01528181612fa50152818161301a0152818161309b01528181613148015281816131ae015281816131f601528181613b7201528181613bbf0152613be3015260008181610baf01528181610ccd01528181610d200152818161144a0152611486015260008181610b8901528181610c3c0152818161138401526113d00152614d2b6000f3fe6080604052600436106102815760003560e01c80639c18c7631161014f578063cb8ea538116100c1578063ea2e12e51161007a578063ea2e12e514610889578063ecd844ae146108de578063eec245e214610901578063ef7cbc4a14610921578063f444fdd814610941578063fa6ca9e81461096057600080fd5b8063cb8ea538146107b3578063d1591fa6146107d3578063d547741f146107f3578063debcf1fe14610813578063e29eb83614610833578063e60963f81461084957600080fd5b8063ac5b12ec11610113578063ac5b12ec146106f4578063bedf952514610717578063c4d66de814610737578063c735ce4314610757578063c7f5387414610777578063ca15c8731461079357600080fd5b80639c18c763146106455780639dee50ea1461067f578063a1a660a71461069f578063a217fddf146106bf578063a7ae00d2146106d457600080fd5b806354fd4d50116101f35780638619c0d9116101ac5780638619c0d9146105585780639010d07c146105a457806391d14854146105c457806393867fb5146105e457806394717ae91461060557806394cb09471461062557600080fd5b806354fd4d5014610461578063613ef7ed1461047d57806363ee9e4e146104b05780636b36b05b146104d357806382431688146104f357806384ba3f691461052b57600080fd5b80632f2ff15d116102455780632f2ff15d14610377578063327107f71461039757806336568abe146103de5780634b4e97ee146103fe5780634bb69ddb146104215780634c0a0dfa1461044157600080fd5b806301ffc9a71461028d578063035dff19146102c25780630d108f2c146102f7578063185a567114610319578063248a9ca31461033957600080fd5b3661028857005b600080fd5b34801561029957600080fd5b506102ad6102a83660046143c2565b610973565b60405190151581526020015b60405180910390f35b3480156102ce57600080fd5b5061012e54640100000000900463ffffffff165b60405163ffffffff90911681526020016102b9565b34801561030357600080fd5b506103176103123660046143ec565b61099e565b005b34801561032557600080fd5b50610317610334366004614427565b6109d3565b34801561034557600080fd5b50610369610354366004614444565b60009081526065602052604090206001015490565b6040519081526020016102b9565b34801561038357600080fd5b5061031761039236600461445d565b6109f7565b3480156103a357600080fd5b507f00000000000000000000000000000000000000000000000000000000000000005b6040516001600160a01b0390911681526020016102b9565b3480156103ea57600080fd5b506103176103f936600461445d565b610a21565b34801561040a57600080fd5b5061012e54600160801b900463ffffffff166102e2565b34801561042d57600080fd5b5061031761043c3660046143ec565b610aa0565b34801561044d57600080fd5b5061031761045c3660046144d2565b610ad1565b34801561046d57600080fd5b50604051600481526020016102b9565b34801561048957600080fd5b507f00000000000000000000000000000000000000000000000000000000000000006103c6565b3480156104bc57600080fd5b5061012e54600160a01b900463ffffffff166102e2565b3480156104df57600080fd5b506103176104ee3660046143ec565b61110c565b3480156104ff57600080fd5b5061051361050e36600461452b565b611137565b6040516001600160801b0390911681526020016102b9565b34801561053757600080fd5b5061054b610546366004614427565b6111d9565b6040516102b99190614560565b34801561056457600080fd5b5060408051808201825260008082526020918201528151808301909252610133546001600160801b038082168452600160801b909104169082015261054b565b3480156105b057600080fd5b506103c66105bf366004614584565b611301565b3480156105d057600080fd5b506102ad6105df36600461445d565b611320565b3480156105f057600080fd5b50600080516020614cff833981519152610369565b34801561061157600080fd5b506103176106203660046145a6565b61134b565b34801561063157600080fd5b50610369610640366004614427565b61137f565b34801561065157600080fd5b506102ad610660366004614427565b6001600160a01b0316600090815261012f602052604090205460ff1690565b34801561068b57600080fd5b5061031761069a3660046143ec565b6114d4565b3480156106ab57600080fd5b506103176106ba3660046145c1565b611505565b3480156106cb57600080fd5b50610369600081565b3480156106e057600080fd5b506105136106ef36600461452b565b61163e565b34801561070057600080fd5b5061012e54600160601b900463ffffffff166102e2565b34801561072357600080fd5b506102ad610732366004614427565b6116cc565b34801561074357600080fd5b50610317610752366004614427565b6116d7565b34801561076357600080fd5b50610317610772366004614654565b6117ea565b34801561078357600080fd5b5061012e5463ffffffff166102e2565b34801561079f57600080fd5b506103696107ae366004614444565b61180c565b3480156107bf57600080fd5b506103176107ce3660046143ec565b611823565b3480156107df57600080fd5b506103176107ee3660046145a6565b611854565b3480156107ff57600080fd5b5061031761080e36600461445d565b6118a9565b34801561081f57600080fd5b5061031761082e366004614682565b6118ce565b34801561083f57600080fd5b5061012d54610369565b34801561085557600080fd5b50610513610864366004614427565b6001600160a01b0316600090815261013260205260409020546001600160801b031690565b34801561089557600080fd5b507f00000000000000000000000000000000000000000000000000000000000000006001600160a01b0316600090815261013260205260409020546001600160801b0316610513565b3480156108ea57600080fd5b5061012e54600160401b900463ffffffff166102e2565b34801561090d57600080fd5b5061051361091c366004614427565b61193b565b34801561092d57600080fd5b5061031761093c3660046143ec565b611946565b34801561094d57600080fd5b50610134546001600160a01b03166103c6565b61031761096e366004614707565b611977565b60006001600160e01b03198216635a05180f60e01b1480610998575061099882611a55565b92915050565b6109b6600080516020614cff83398151915233611a8a565b8063ffffffff166109c681611ab1565b6109cf82611ad2565b5050565b6109eb600080516020614cff83398151915233611a8a565b6109f481611b51565b50565b600082815260656020526040902060010154610a1281611bbf565b610a1c8383611bc9565b505050565b6001600160a01b0381163314610a965760405162461bcd60e51b815260206004820152602f60248201527f416363657373436f6e74726f6c3a2063616e206f6e6c792072656e6f756e636560448201526e103937b632b9903337b91039b2b63360891b60648201526084015b60405180910390fd5b6109cf8282611beb565b610ab8600080516020614cff83398151915233611a8a565b8063ffffffff16610ac881611ab1565b6109cf82611c0d565b610ad9611c8f565b8181610ae58282611ce8565b8260008167ffffffffffffffff811115610b0157610b0161474c565b604051908082528060200260200182016040528015610b2a578160200160208202803683370190505b50905060008267ffffffffffffffff811115610b4857610b4861474c565b604051908082528060200260200182016040528015610b71578160200160208202803683370190505b5061012e5490915063ffffffff166001600160a01b037f000000000000000000000000000000000000000000000000000000000000000081161515907f000000000000000000000000000000000000000000000000000000000000000016151560005b86811015610de15760008b8b83818110610bf057610bf0614762565b9050602002016020810190610c059190614427565b905060008415610cb657604051634dd1b96160e11b81526001600160a01b03838116600483015260001960248301523060448301527f00000000000000000000000000000000000000000000000000000000000000001690639ba372c2906064016020604051808303816000875af1158015610c85573d6000803e3d6000fd5b505050506040513d601f19601f82011682018060405250810190610ca99190614778565b610cb390826147a7565b90505b8315610d8e576000610cf16001600160a01b0384167f0000000000000000000000000000000000000000000000000000000000000000611de7565b604051631c20fadd60e01b81526001600160a01b038581166004830152306024830152604482018390529192507f000000000000000000000000000000000000000000000000000000000000000090911690631c20fadd90606401600060405180830381600087803b158015610d6657600080fd5b505af1158015610d7a573d6000803e3d6000fd5b505050508082610d8a91906147a7565b9150505b80888481518110610da157610da1614762565b6020908102919091010152610dba8187620f4240611e75565b878481518110610dcc57610dcc614762565b60209081029190910101525050600101610bd4565b5060005b868110156110ba5760008b8b83818110610e0157610e01614762565b9050602002016020810190610e169190614427565b90506000878381518110610e2c57610e2c614762565b602002602001015190506000878481518110610e4a57610e4a614762565b6020026020010151905060008183610e6291906147ba565b9050821580610e8a57506001600160a01b038416600090815261012f602052604090205460ff165b15610e9857505050506110b2565b610ece847f00000000000000000000000000000000000000000000000000000000000000006001600160a01b0390811691161490565b15610ee657610edd8482611f50565b505050506110b2565b610f1c847f00000000000000000000000000000000000000000000000000000000000000006001600160a01b0390811691161490565b15610fe2577f00000000000000000000000000000000000000000000000000000000000000006001600160a01b0316610f7e57610f797f000000000000000000000000000000000000000000000000000000000000000082611f50565b6110ad565b610f8784611f98565b1580610fc557506001600160a01b038416600090815261013260205260409020546001600160801b0316610fba85611fbc565b6001600160801b0316105b80610fd45750610fd48461202d565b15610f7957610f79826120ee565b6000610fed85611fbc565b9050610ff885611f98565b158061103457506001600160a01b038516600090815261013260205260409020546001600160801b039081169061103290849084166147ba565b105b8061108d57506001600160a01b0385166000908152610132602052604090205461012e54611078916001600160801b031690600160401b900463ffffffff166147cd565b6001600160801b0316816001600160801b0316115b8061109c575061109c8561202d565b156110ab576110ab858461220f565b505b505050505b600101610de5565b506110fa338b8b80806020026020016040519081016040528093929190818152602001838360200280828437600092019190915250899250612298915050565b50505050505050506109cf600160fb55565b611124600080516020614cff83398151915233611a8a565b8061112e81612310565b6109cf8261233a565b600082611143816123a6565b600061114e856111d9565b905061115981612407565b600061119161118c83602001516001600160801b0316876001600160801b031685600001516001600160801b0316611e75565b612446565b905061119c86611fbc565b6001600160801b0316816001600160801b031611156111ce57604051638e26ecdf60e01b815260040160405180910390fd5b9250505b5092915050565b60408051808201909152600080825260208201526001600160a01b0382166000908152610130602052604081205463ffffffff169081900361122e5760405163bcb8b8fb60e01b815260040160405180910390fd5b600061123a82426147f8565b6001600160a01b038581166000818152610131602090815260408083208151808301909252546001600160801b038082168352600160801b9091041691810191909152939450917f000000000000000000000000000000000000000000000000000000000000000016146112be5761012e54600160a01b900463ffffffff166112d0565b61012e54600160601b900463ffffffff165b90506112ed61118c83600001516001600160801b031685846124b3565b6001600160801b0316825250949350505050565b6000828152609760205260408120611319908361253b565b9392505050565b60009182526065602090815260408084206001600160a01b0393909316845291905290205460ff1690565b611363600080516020614cff83398151915233611a8a565b806001600160801b031661137681611ab1565b6109cf82612547565b6000807f00000000000000000000000000000000000000000000000000000000000000006001600160a01b03161561144857604051633f3d999960e21b81526001600160a01b0384811660048301527f0000000000000000000000000000000000000000000000000000000000000000169063fcf6666490602401602060405180830381865afa158015611417573d6000803e3d6000fd5b505050506040513d601f19601f8201168201806040525081019061143b9190614778565b61144590826147a7565b90505b7f00000000000000000000000000000000000000000000000000000000000000006001600160a01b0316156114b7576114aa6001600160a01b0384167f0000000000000000000000000000000000000000000000000000000000000000611de7565b6114b490826147a7565b90505b6114ca6001600160a01b03841630611de7565b61131990826147a7565b6114ec600080516020614cff83398151915233611a8a565b8063ffffffff166114fc81611ab1565b6109cf8261263c565b8261150f816126bb565b858561151b8282611ce8565b611523611c8f565b61153b600080516020614cff83398151915233611a8a565b8684811461155c576040516301707f0760e31b815260040160405180910390fd5b60005b818110156115c3576115bb8888888481811061157d5761157d614762565b905060200201358c8c8581811061159657611596614762565b90506020020160208101906115ab9190614427565b6001600160a01b031691906126e2565b60010161155f565b50866001600160a01b0316336001600160a01b03168a8a6040516115e8929190614815565b60405180910390207f928c965b5a7ac3964d452392d2920cfe16f13634362554650837410a99cc3b558989604051611621929190614857565b60405180910390a450611634600160fb55565b5050505050505050565b60008261164a816123a6565b61165384611fbc565b6001600160801b0316836001600160801b0316111561168557604051638e26ecdf60e01b815260040160405180910390fd5b6000611690856111d9565b905061169b81612407565b6111ce61118c82600001516001600160801b0316866001600160801b031684602001516001600160801b0316612724565b600061099882611f98565b600054610100900460ff16158080156116f75750600054600160ff909116105b806117115750303b158015611711575060005460ff166001145b6117745760405162461bcd60e51b815260206004820152602e60248201527f496e697469616c697a61626c653a20636f6e747261637420697320616c72656160448201526d191e481a5b9a5d1a585b1a5e995960921b6064820152608401610a8d565b6000805460ff191660011790558015611797576000805461ff0019166101001790555b6117a08261277b565b80156109cf576000805461ff0019169055604051600181527f7f26b83ff96e1f2b6a682f133852f6798a09c465da95921460cefb3847402498906020015b60405180910390a15050565b611802600080516020614cff83398151915233611a8a565b6109cf82826127bb565b600081815260976020526040812061099890612847565b61183b600080516020614cff83398151915233611a8a565b8063ffffffff1661184b81611ab1565b6109cf82612851565b61186c600080516020614cff83398151915233611a8a565b806001600160801b031661187f81611ab1565b6109cf7f0000000000000000000000000000000000000000000000000000000000000000836128d5565b6000828152606560205260409020600101546118c481611bbf565b610a1c8383611beb565b60c9546000906118e39061ffff166001614890565b905060048480156118fc57508061ffff168261ffff1614155b156119195760405162dc149f60e41b815260040160405180910390fd5b84611922578091505b60c9805461ffff191661ffff84161790555b5050505050565b600061099882611fbc565b61195e600080516020614cff83398151915233611a8a565b8063ffffffff1661196e81611ab1565b6109cf82612978565b61197f611c8f565b82611989816123a6565b826001600160801b031661199c81611ab1565b60006119d4867f00000000000000000000000000000000000000000000000000000000000000006001600160a01b0390811691161490565b156119ea576119e385856129f7565b90506119f8565b6119f5868686612ec4565b90505b604080516001600160801b038084168252871660208201526001600160a01b0388169133917f16ddee9b3f1b2e6f797172fe2cd10a214e749294074e075e451f95aecd0b958c910160405180910390a3505050610a1c600160fb55565b60006001600160e01b03198216637965db0b60e01b148061099857506301ffc9a760e01b6001600160e01b0319831614610998565b611a948282611320565b6109cf57604051634ca8886760e01b815260040160405180910390fd5b806000036109f457604051637c946ed760e01b815260040160405180910390fd5b61012e5463ffffffff600160a01b90910481169082168103611af2575050565b61012e805463ffffffff60a01b1916600160a01b63ffffffff8581169182029290921790925560408051918416825260208201929092527f91a3ff80be5536f6b4a03994984844ded4c1470ac2e7c1a1f9445464358788c391016117de565b610134546001600160a01b039081169082168103611b6d575050565b61013480546001600160a01b0319166001600160a01b0384811691821790925560405190918316907f0c752b9b11fd9a446c76e6b4cec603d51f2dc603428e800999192409062cbabe90600090a35050565b6109f4813361325b565b611bd382826132b4565b6000828152609760205260409020610a1c908261333a565b611bf5828261334f565b6000828152609760205260409020610a1c90826133b6565b61012e5463ffffffff64010000000090910481169082168103611c2e575050565b61012e805467ffffffff00000000191664010000000063ffffffff8581169182029290921790925560408051918416825260208201929092527f33f05f943b1d9d33ead056b32deb8d9918421c996ac02108cb2753a7c1cc42cb91016117de565b600260fb5403611ce15760405162461bcd60e51b815260206004820152601f60248201527f5265656e7472616e637947756172643a207265656e7472616e742063616c6c006044820152606401610a8d565b600260fb55565b806000819003611d0b57604051637dee3bcb60e01b815260040160405180910390fd5b60005b81811015611de1576000848483818110611d2a57611d2a614762565b9050602002016020810190611d3f9190614427565b90506001600160a01b038116611d685760405163c1ab6dc160e01b815260040160405180910390fd5b600182015b83811015611dd757611db182878784818110611d8b57611d8b614762565b9050602002016020810190611da09190614427565b6001600160a01b0390811691161490565b15611dcf576040516323271fb560e11b815260040160405180910390fd5b600101611d6d565b5050600101611d0e565b50505050565b6000611df2836133cb565b15611e0857506001600160a01b03811631610998565b826040516370a0823160e01b81526001600160a01b03848116600483015291909116906370a0823190602401602060405180830381865afa158015611e51573d6000803e3d6000fd5b505050506040513d601f19601f820116820180604052508101906113199190614778565b6000806000611e8486866133f2565b9150915081600003611ea957838181611e9f57611e9f6148ab565b0492505050611319565b838210611ec957604051631a93c68960e11b815260040160405180910390fd5b6000611ed687878761342d565b9050600080611ee6858585613448565b9150915081600003611f0e57868181611f0157611f016148ab565b0495505050505050611319565b6000878103881690611f21848484613478565b90506000611f3d838b81611f3757611f376148ab565b046134b5565b919091029b9a5050505050505050505050565b8061012d6000828254611f6391906147a7565b9091555050610134546001600160a01b0316611f7d575050565b610134546109cf906001600160a01b038481169116836126e2565b6001600160a01b03166000908152610130602052604090205463ffffffff16151590565b6000611ff4827f00000000000000000000000000000000000000000000000000000000000000006001600160a01b0390811691161490565b1561201257505061013354600160801b90046001600160801b031690565b61099861118c6001600160a01b03841630611de7565b919050565b6001600160a01b0381166000908152610130602052604081205463ffffffff1680820361205d5750600092915050565b600061206982426147f8565b905060006120a3857f00000000000000000000000000000000000000000000000000000000000000006001600160a01b0390811691161490565b6120bd5761012e54600160a01b900463ffffffff166120cf565b61012e54600160601b900463ffffffff165b905060806120dd82846148c1565b63ffffffff16101595945050505050565b60006121197f00000000000000000000000000000000000000000000000000000000000000006134d6565b905061217161118c836121556001600160a01b037f00000000000000000000000000000000000000000000000000000000000000001630611de7565b61215f91906147ba565b610133546001600160801b0316613557565b61013380546001600160801b03928316600160801b02921691909117905561012e546121aa9063ffffffff600160a01b90910416612978565b7f00000000000000000000000000000000000000000000000000000000000000006001600160a01b03167f5ca7720c6803d2fa51e59501f044b092942f5ca58436a564f81c63c7e5b95466826040516122039190614560565b60405180910390a25050565b600061221a836134d6565b9050612252836002612243856122396001600160a01b03851630611de7565b61118c91906147ba565b61224d91906148e4565b6128d5565b826001600160a01b03167f5ca7720c6803d2fa51e59501f044b092942f5ca58436a564f81c63c7e5b954668260405161228b9190614560565b60405180910390a2505050565b815160005b818110156119345760008482815181106122b9576122b9614762565b6020026020010151905060008483815181106122d7576122d7614762565b602002602001015190506122ff8782846001600160a01b03166126e29092919063ffffffff16565b505060010161229d565b600160fb55565b620f424063ffffffff821611156109f4576040516358d620b360e01b815260040160405180910390fd5b61012e5463ffffffff9081169082168103612353575050565b61012e805463ffffffff191663ffffffff84811691821790925560408051928416835260208301919091527fae6032c8c5e2de64a0ea5bae16212679a17117929d901adc5ad7852d503d8a1291016117de565b6123af81611f98565b6123cc5760405163bcb8b8fb60e01b815260040160405180910390fd5b6001600160a01b038116600090815261012f602052604090205460ff16156109f457604051633a62998560e11b815260040160405180910390fd5b80516001600160801b03161580612429575060208101516001600160801b0316155b156109f45760405162bfc92160e01b815260040160405180910390fd5b60006001600160801b038211156124af5760405162461bcd60e51b815260206004820152602760248201527f53616665436173743a2076616c756520646f65736e27742066697420696e20316044820152663238206269747360c81b6064820152608401610a8d565b5090565b6000806124c083856148c1565b63ffffffff16905060006124d484866148fe565b63ffffffff169050600060405180604001604052808381526020018663ffffffff16815250905060006125068261356d565b905061252f88826020015186600261251e9190614b03565b845161252a9190614b0f565b611e75565b98975050505050505050565b600061131983836138f4565b610133546001600160801b039081169082168103612563575050565b61013380546001600160801b0319166001600160801b0384811691821792839055600160801b90920490911611156125fc576125dd61118c6125ce6001600160a01b037f00000000000000000000000000000000000000000000000000000000000000001630611de7565b846001600160801b0316613557565b61013380546001600160801b03928316600160801b0292169190911790555b604080516001600160801b038084168252841660208201527fdbd15ecc744064a04fd47221c1e039aaebacbc20c59b7b833fe499efb1999cd391016117de565b61012e5463ffffffff600160801b9091048116908216810361265c575050565b61012e805463ffffffff60801b1916600160801b63ffffffff8581169182029290921790925560408051918416825260208201929092527f0975e374c098c5a9a021fe12dff984574b06a6da66d816004d0a6e12e387c02b91016117de565b6001600160a01b0381166109f45760405163e6c4247b60e01b815260040160405180910390fd5b806000036126ef57505050565b6126f8836133cb565b1561271057610a1c6001600160a01b0383168261391e565b610a1c6001600160a01b0384168383613a37565b600080612732858585611e75565b9050600061274186868661342d565b111561277357600019811061276957604051631a93c68960e11b815260040160405180910390fd5b6001019050611319565b949350505050565b600054610100900460ff166127a25760405162461bcd60e51b8152600401610a8d90614b26565b6127aa613a9a565b6127b2613ad3565b6109f481613b02565b6001600160a01b038216600090815261012f602052604090205460ff16811515811515036127e857505050565b6001600160a01b038316600081815261012f6020908152604091829020805460ff191686151590811790915582518515158152918201527ffee4ac8750f51e1aaece4e95e80a8a961f8865ad4cc9938493b7d3d280cf18ff910161228b565b6000610998825490565b61012e5463ffffffff600160401b90910481169082168103612871575050565b61012e80546bffffffff00000000000000001916600160401b63ffffffff8581169182029290921790925560408051918416825260208201929092527f5f8c28c7dd7c58bccf13b50fb8815ac0278a1edd75b439e06ebfb0bb0a65dce191016117de565b6001600160a01b038216600090815261013260205260409020546001600160801b03908116908216810361290857505050565b6001600160a01b0383166000818152610132602090815260409182902080546001600160801b0319166001600160801b0387811691821790925583519186168252918101919091527f5a387f90e98064d45229fc077854834539bef69df2b1447346ce29f8761a158f910161228b565b61012e5463ffffffff600160601b90910481169082168103612998575050565b61012e805463ffffffff60601b1916600160601b63ffffffff8581169182029290921790925560408051918416825260208201929092527f294a5aed6c155d82e90637e2643e9b498d502610ff21b79c0bd25fc84321132891016117de565b600080612a247f00000000000000000000000000000000000000000000000000000000000000008561163e565b9050806001600160801b0316600003612a505760405163d69b537960e01b815260040160405180910390fd5b826001600160801b0316816001600160801b03161115612a8357604051630699263d60e01b815260040160405180910390fd5b6001600160a01b037f00000000000000000000000000000000000000000000000000000000000000001673eeeeeeeeeeeeeeeeeeeeeeeeeeeeeeeeeeeeeeee14158015612ad05750600034115b15612aee57604051631334bf4f60e11b815260040160405180910390fd5b6001600160a01b037f00000000000000000000000000000000000000000000000000000000000000001673eeeeeeeeeeeeeeeeeeeeeeeeeeeeeeeeeeeeeeee148015612b425750806001600160801b031634105b15612b6057604051639086bdc160e01b815260040160405180910390fd5b612b9e6001600160a01b037f00000000000000000000000000000000000000000000000000000000000000001633306001600160801b038516613c26565b612bdb6001600160a01b037f000000000000000000000000000000000000000000000000000000000000000016336001600160801b0387166126e2565b612c0e7f0000000000000000000000000000000000000000000000000000000000000000826001600160801b0316611f50565b6001600160a01b037f00000000000000000000000000000000000000000000000000000000000000001673eeeeeeeeeeeeeeeeeeeeeeeeeeeeeeeeeeeeeeee148015612c625750806001600160801b031634115b15612c8457612c84612c7d6001600160801b038316346147ba565b339061391e565b6101338054859190601090612caa908490600160801b90046001600160801b0316614b71565b82546101009290920a6001600160801b038181021990931691831602179091557f00000000000000000000000000000000000000000000000000000000000000006001600160a01b03166000908152610132602052604090205461013354908216600160801b9091049091161015905061131957612d5761118c61215f6001600160a01b037f00000000000000000000000000000000000000000000000000000000000000001630611de7565b61013380546001600160801b03928316600160801b0292169190911790556000612da07f00000000000000000000000000000000000000000000000000000000000000006111d9565b61012e548151919250640100000000900463ffffffff16908290612dc59083906147cd565b6001600160801b039081169091526001600160a01b037f0000000000000000000000000000000000000000000000000000000000000000166000908152610131602090815260408083208651838801518616600160801b908102919096161790556101309091529020805463ffffffff42811663ffffffff199092169190911790915561012e54612e5b93509190910416612978565b7f00000000000000000000000000000000000000000000000000000000000000006001600160a01b03167faa86acbf67bc5e97ce95471a279336f9fa5bd2ac8f64e81ac442a0972b0c633b82604051612eb49190614560565b60405180910390a2509392505050565b600080612ed1858561163e565b9050806001600160801b0316600003612efd5760405163d69b537960e01b815260040160405180910390fd5b826001600160801b0316816001600160801b03161115612f3057604051630699263d60e01b815260040160405180910390fd5b6001600160a01b037f00000000000000000000000000000000000000000000000000000000000000001673eeeeeeeeeeeeeeeeeeeeeeeeeeeeeeeeeeeeeeee14158015612f7d5750600034115b15612f9b57604051631334bf4f60e11b815260040160405180910390fd5b6001600160a01b037f00000000000000000000000000000000000000000000000000000000000000001673eeeeeeeeeeeeeeeeeeeeeeeeeeeeeeeeeeeeeeee148015612fef5750806001600160801b031634105b1561300d57604051639086bdc160e01b815260040160405180910390fd5b61304b6001600160a01b037f00000000000000000000000000000000000000000000000000000000000000001633306001600160801b038516613c26565b6130686001600160a01b038616336001600160801b038716613c50565b7f00000000000000000000000000000000000000000000000000000000000000006001600160a01b03166130c9576130c97f0000000000000000000000000000000000000000000000000000000000000000826001600160801b0316611f50565b6001600160a01b038516600090815261013260205260409020546001600160801b03166130f586611fbc565b6001600160801b0316101561310f5761310f85600061220f565b7f00000000000000000000000000000000000000000000000000000000000000006001600160a01b0316158015906131dd575061012e547f00000000000000000000000000000000000000000000000000000000000000006001600160a01b0316600090815261013260205260409020546131a091600160401b900463ffffffff16906001600160801b03166148e4565b6001600160801b03166131d27f0000000000000000000000000000000000000000000000000000000000000000611fbc565b6001600160801b0316105b156131ec576131ec60006120ee565b6001600160a01b037f00000000000000000000000000000000000000000000000000000000000000001673eeeeeeeeeeeeeeeeeeeeeeeeeeeeeeeeeeeeeeee1480156132405750806001600160801b031634115b1561277357612773612c7d6001600160801b038316346147ba565b6132658282611320565b6109cf5761327281613ca1565b61327d836020613cb3565b60405160200161328e929190614bb5565b60408051601f198184030181529082905262461bcd60e51b8252610a8d91600401614c2a565b6132be8282611320565b6109cf5760008281526065602090815260408083206001600160a01b03851684529091529020805460ff191660011790556132f63390565b6001600160a01b0316816001600160a01b0316837f2f8788117e7eff1d82e926ec794901d17c78024a50270940304540a733656f0d60405160405180910390a45050565b6000611319836001600160a01b038416613e4f565b6133598282611320565b156109cf5760008281526065602090815260408083206001600160a01b0385168085529252808320805460ff1916905551339285917ff6391f5c32d9c69d2a47ea670b442974b53935d1edc7fd64eb21e047a839171b9190a45050565b6000611319836001600160a01b038416613e9e565b60006001600160a01b03821673eeeeeeeeeeeeeeeeeeeeeeeeeeeeeeeeeeeeeeee14610998565b60008060006134018585613f91565b905084840280821061341a579081900392509050613426565b60018183030393509150505b9250929050565b6000818061343d5761343d6148ab565b838509949350505050565b60008082841061345e5750839050818303613470565b6134696001866147ba565b9150508183035b935093915050565b600080613496838083038161348f5761348f6148ab565b0460010190565b90508284816134a7576134a76148ab565b048186021795945050505050565b60006001815b60088110156111d257838202600203820291506001016134bb565b60408051808201825260008082526020918201819052825180840184526001600160801b0380825264e8d4a510008285019081526001600160a01b039690961683526101308452848320805463ffffffff19164263ffffffff1617905561013190935292902082519351938216600160801b94909216939093021790915590565b60008183106135665781611319565b5090919050565b604080518082019091526000808252602082015260006135a66f58b90bfbe8e7bcd5e4f1d9cc01f97b5784600001518560200151611e75565b905060008080600160831b84106135d057604051631a93c68960e11b815260040160405180910390fd5b6001607c1b840692508291506001607f1b8280020491506710e1b3be415a00008202016001607f1b8383020491506705a0913f6b1e00008202016001607f1b838302049150670168244fdac780008202016001607f1b838302049150664807432bc180008202016001607f1b838302049150660c0135dca040008202016001607f1b8383020491506601b707b1cdc0008202016001607f1b8383020491506536e0f639b8008202016001607f1b838302049150650618fee9f8008202016001607f1b838302049150649c197dcc008202016001607f1b838302049150640e30dce4008202016001607f1b83830204915064012ebd13008202016001607f1b8383020491506317499f008202016001607f1b8383020491506301a9d4808202016001607f1b838302049150621c63808202016001607f1b8383020491506201c6388202016001607f1b838302049150611ab88202016001607f1b83830204915061017c8202016001607f1b83830204915060148202016001607f1b83830204915081016001607f1b836721c3677c82b400008304010190506001607c1b84161561379d5770018ebef9eac820ae8682b9793ac6d1e7767001c3d6a24ed82218787d624d3e5eba95f982020490505b6001607d1b8416156137d3577001368b2fc6f9609fe7aceb46aa619baed470018ebef9eac820ae8682b9793ac6d1e77882020490505b6001607e1b841615613808576fbc5ab1b16779be3575bd8f0520a9f21f7001368b2fc6f9609fe7aceb46aa619baed582020490505b6001607f1b84161561383c576f454aaa8efe072e7f6ddbab84b40a55c96fbc5ab1b16779be3575bd8f0520a9f21e82020490505b600160801b841615613870576f0960aadc109e7a3bf4578099615711ea6f454aaa8efe072e7f6ddbab84b40a55c582020490505b600160811b8416156138a3576e2bf84208204f5977f9a8cf01fdce3d6f0960aadc109e7a3bf4578099615711d782020490505b600160821b8416156138d4576d03c6ab775dd0b95b4cbee7e65d116e2bf84208204f5977f9a8cf01fdc30782020490505b604080518082019091529081526001607f1b602082015295945050505050565b600082600001828154811061390b5761390b614762565b9060005260206000200154905092915050565b8047101561396e5760405162461bcd60e51b815260206004820152601d60248201527f416464726573733a20696e73756666696369656e742062616c616e63650000006044820152606401610a8d565b6000826001600160a01b03168260405160006040518083038185875af1925050503d80600081146139bb576040519150601f19603f3d011682016040523d82523d6000602084013e6139c0565b606091505b5050905080610a1c5760405162461bcd60e51b815260206004820152603a60248201527f416464726573733a20756e61626c6520746f2073656e642076616c75652c207260448201527f6563697069656e74206d617920686176652072657665727465640000000000006064820152608401610a8d565b6040516001600160a01b038316602482015260448101829052610a1c90849063a9059cbb60e01b906064015b60408051601f198184030181529190526020810180516001600160e01b03166001600160e01b031990931692909217909152613fa0565b600054610100900460ff16613ac15760405162461bcd60e51b8152600401610a8d90614b26565b613ac9614075565b613ad161409c565b565b600054610100900460ff16613afa5760405162461bcd60e51b8152600401610a8d90614b26565b613ad161410c565b600054610100900460ff16613b295760405162461bcd60e51b8152600401610a8d90614b26565b613b346103e861233a565b613b3e6002611c0d565b613b486004612851565b613b5361a8c0611ad2565b613b5e61a8c0612978565b613b6a620d2f0061263c565b613bba613b9f7f00000000000000000000000000000000000000000000000000000000000000006001600160a01b0316614133565b613baa90600a614c5d565b613bb59060646147cd565b612547565b6109eb7f0000000000000000000000000000000000000000000000000000000000000000613c107f00000000000000000000000000000000000000000000000000000000000000006001600160a01b0316614133565b613c1b90600a614c5d565b61224d90600a6147cd565b801580613c375750613c37846133cb565b611de157611de16001600160a01b0385168484846141ad565b80600003613c5d57505050565b613c66836133cb565b15612710576040516001600160a01b0383169082156108fc029083906000818181858888f19350505050158015611de1573d6000803e3d6000fd5b60606109986001600160a01b03831660145b60606000613cc2836002614b0f565b613ccd9060026147a7565b67ffffffffffffffff811115613ce557613ce561474c565b6040519080825280601f01601f191660200182016040528015613d0f576020820181803683370190505b509050600360fc1b81600081518110613d2a57613d2a614762565b60200101906001600160f81b031916908160001a905350600f60fb1b81600181518110613d5957613d59614762565b60200101906001600160f81b031916908160001a9053506000613d7d846002614b0f565b613d889060016147a7565b90505b6001811115613e00576f181899199a1a9b1b9c1cb0b131b232b360811b85600f1660108110613dbc57613dbc614762565b1a60f81b828281518110613dd257613dd2614762565b60200101906001600160f81b031916908160001a90535060049490941c93613df981614c75565b9050613d8b565b5083156113195760405162461bcd60e51b815260206004820181905260248201527f537472696e67733a20686578206c656e67746820696e73756666696369656e746044820152606401610a8d565b6000818152600183016020526040812054613e9657508154600181810184556000848152602080822090930184905584548482528286019093526040902091909155610998565b506000610998565b60008181526001830160205260408120548015613f87576000613ec26001836147ba565b8554909150600090613ed6906001906147ba565b9050818114613f3b576000866000018281548110613ef657613ef6614762565b9060005260206000200154905080876000018481548110613f1957613f19614762565b6000918252602080832090910192909255918252600188019052604090208390555b8554869080613f4c57613f4c614c8c565b600190038181906000526020600020016000905590558560010160008681526020019081526020016000206000905560019350505050610998565b6000915050610998565b60006000198284099392505050565b6000613ff5826040518060400160405280602081526020017f5361666545524332303a206c6f772d6c6576656c2063616c6c206661696c6564815250856001600160a01b03166141e59092919063ffffffff16565b90508051600014806140165750808060200190518101906140169190614ca2565b610a1c5760405162461bcd60e51b815260206004820152602a60248201527f5361666545524332303a204552433230206f7065726174696f6e20646964206e6044820152691bdd081cdd58d8d9595960b21b6064820152608401610a8d565b600054610100900460ff16613ad15760405162461bcd60e51b8152600401610a8d90614b26565b600054610100900460ff166140c35760405162461bcd60e51b8152600401610a8d90614b26565b60c9805461ffff191660041790556140e9600080516020614cff833981519152806141f4565b614101600080516020614cff8339815191523361423f565b613ad160003361423f565b600054610100900460ff166123095760405162461bcd60e51b8152600401610a8d90614b26565b600061413e826133cb565b1561414b57506008919050565b816001600160a01b031663313ce5676040518163ffffffff1660e01b8152600401602060405180830381865afa158015614189573d6000803e3d6000fd5b505050506040513d601f19601f820116820180604052508101906109989190614cbf565b6040516001600160a01b0380851660248301528316604482015260648101829052611de19085906323b872dd60e01b90608401613a63565b60606127738484600085614249565b600082815260656020526040808220600101805490849055905190918391839186917fbd79b86ffe0ab8e8776151514217cd7cacd52c909f66475c3af44e129f0b00ff9190a4505050565b6109cf8282611bc9565b6060824710156142aa5760405162461bcd60e51b815260206004820152602660248201527f416464726573733a20696e73756666696369656e742062616c616e636520666f6044820152651c8818d85b1b60d21b6064820152608401610a8d565b600080866001600160a01b031685876040516142c69190614ce2565b60006040518083038185875af1925050503d8060008114614303576040519150601f19603f3d011682016040523d82523d6000602084013e614308565b606091505b509150915061431987838387614324565b979650505050505050565b6060831561439357825160000361438c576001600160a01b0385163b61438c5760405162461bcd60e51b815260206004820152601d60248201527f416464726573733a2063616c6c20746f206e6f6e2d636f6e74726163740000006044820152606401610a8d565b5081612773565b61277383838151156143a85781518083602001fd5b8060405162461bcd60e51b8152600401610a8d9190614c2a565b6000602082840312156143d457600080fd5b81356001600160e01b03198116811461131957600080fd5b6000602082840312156143fe57600080fd5b813563ffffffff8116811461131957600080fd5b6001600160a01b03811681146109f457600080fd5b60006020828403121561443957600080fd5b813561131981614412565b60006020828403121561445657600080fd5b5035919050565b6000806040838503121561447057600080fd5b82359150602083013561448281614412565b809150509250929050565b60008083601f84011261449f57600080fd5b50813567ffffffffffffffff8111156144b757600080fd5b6020830191508360208260051b850101111561342657600080fd5b600080602083850312156144e557600080fd5b823567ffffffffffffffff8111156144fc57600080fd5b6145088582860161448d565b90969095509350505050565b80356001600160801b038116811461202857600080fd5b6000806040838503121561453e57600080fd5b823561454981614412565b915061455760208401614514565b90509250929050565b60408101610998828480516001600160801b03908116835260209182015116910152565b6000806040838503121561459757600080fd5b50508035926020909101359150565b6000602082840312156145b857600080fd5b61131982614514565b6000806000806000606086880312156145d957600080fd5b853567ffffffffffffffff808211156145f157600080fd5b6145fd89838a0161448d565b90975095506020880135915061461282614412565b9093506040870135908082111561462857600080fd5b506146358882890161448d565b969995985093965092949392505050565b80151581146109f457600080fd5b6000806040838503121561466757600080fd5b823561467281614412565b9150602083013561448281614646565b60008060006040848603121561469757600080fd5b83356146a281614646565b9250602084013567ffffffffffffffff808211156146bf57600080fd5b818601915086601f8301126146d357600080fd5b8135818111156146e257600080fd5b8760208285010111156146f457600080fd5b6020830194508093505050509250925092565b60008060006060848603121561471c57600080fd5b833561472781614412565b925061473560208501614514565b915061474360408501614514565b90509250925092565b634e487b7160e01b600052604160045260246000fd5b634e487b7160e01b600052603260045260246000fd5b60006020828403121561478a57600080fd5b5051919050565b634e487b7160e01b600052601160045260246000fd5b8082018082111561099857610998614791565b8181038181111561099857610998614791565b6001600160801b038181168382160280821691908281146147f0576147f0614791565b505092915050565b63ffffffff8281168282160390808211156111d2576111d2614791565b60008184825b8581101561484c57813561482e81614412565b6001600160a01b03168352602092830192919091019060010161481b565b509095945050505050565b6020808252810182905260006001600160fb1b0383111561487757600080fd5b8260051b80856040850137919091016040019392505050565b61ffff8181168382160190808211156111d2576111d2614791565b634e487b7160e01b600052601260045260246000fd5b600063ffffffff808416806148d8576148d86148ab565b92169190910492915050565b60006001600160801b03808416806148d8576148d86148ab565b600063ffffffff80841680614915576149156148ab565b92169190910692915050565b600181815b8085111561495c57816000190482111561494257614942614791565b8085161561494f57918102915b93841c9390800290614926565b509250929050565b600181815b8085111561495c57816001600160801b030482111561498a5761498a614791565b8085161561499757918102915b93841c9390800290614969565b6000826149b357506001610998565b816149c057506000610998565b81600181146149d657600281146149e0576149fc565b6001915050610998565b60ff8411156149f1576149f1614791565b50506001821b610998565b5060208310610133831016604e8410600b8410161715614a1f575081810a610998565b614a298383614921565b8060001904821115614a3d57614a3d614791565b029392505050565b600082614a5457506001610998565b81614a6157506000610998565b81600181146149d65760028103614aa65760ff841115614a8357614a83614791565b6001841b91506001600160801b03821115614aa057614aa0614791565b50610998565b5060208310610133831016604e8410600b8410161715614ae0575081810a6001600160801b03811115614adb57614adb614791565b610998565b614aea8383614964565b806001600160801b0304821115614a3d57614a3d614791565b600061131983836149a4565b808202811582820484141761099857610998614791565b6020808252602b908201527f496e697469616c697a61626c653a20636f6e7472616374206973206e6f74206960408201526a6e697469616c697a696e6760a81b606082015260800190565b6001600160801b038281168282160390808211156111d2576111d2614791565b60005b83811015614bac578181015183820152602001614b94565b50506000910152565b7f416363657373436f6e74726f6c3a206163636f756e7420000000000000000000815260008351614bed816017850160208801614b91565b7001034b99036b4b9b9b4b733903937b6329607d1b6017918401918201528351614c1e816028840160208801614b91565b01602801949350505050565b6020815260008251806020840152614c49816040850160208701614b91565b601f01601f19169190910160400192915050565b600061131960ff84166001600160801b038416614a45565b600081614c8457614c84614791565b506000190190565b634e487b7160e01b600052603160045260246000fd5b600060208284031215614cb457600080fd5b815161131981614646565b600060208284031215614cd157600080fd5b815160ff8116811461131957600080fd5b60008251614cf4818460208701614b91565b919091019291505056fe2172861495e7b85edac73e3cd5fbb42dd675baadf627720e687bcfdaca025096a164736f6c6343000813000a",
  "devdoc": {
    "details": "collects fees and allows users to trade tokens in a dutch auction style configurable parameters include the target token, final target token and the halflife auctions are initiated by calling the execute function all auctions start with an initial price of 2^128 - 1 half-life parameter sets the price decay rate - - this is the time in seconds it takes for the price to halve - this parameter can be configured so that tokens reach the market rate faster or slower target token is the token to which all other tokens are traded to (can be native token for example) final target token is an additional token to which the target token is traded to (optional) transferAddress is the address to which all target / final target tokens are sent to",
    "events": {
      "Initialized(uint8)": {
        "details": "Triggered when the contract has been initialized or reinitialized."
      },
      "RoleAdminChanged(bytes32,bytes32,bytes32)": {
        "details": "Emitted when `newAdminRole` is set as ``role``'s admin role, replacing `previousAdminRole` `DEFAULT_ADMIN_ROLE` is the starting admin for all roles, despite {RoleAdminChanged} not being emitted signaling this. _Available since v3.1._"
      },
      "RoleGranted(bytes32,address,address)": {
        "details": "Emitted when `account` is granted `role`. `sender` is the account that originated the contract call, an admin role bearer except when using {AccessControl-_setupRole}."
      },
      "RoleRevoked(bytes32,address,address)": {
        "details": "Emitted when `account` is revoked `role`. `sender` is the account that originated the contract call:   - if using `revokeRole`, it is the admin role bearer   - if using `renounceRole`, it is the role bearer (i.e. `account`)"
      }
    },
    "kind": "dev",
    "methods": {
      "constructor": {
        "details": "used to set immutable state variables"
      },
      "getRoleAdmin(bytes32)": {
        "details": "Returns the admin role that controls `role`. See {grantRole} and {revokeRole}. To change a role's admin, use {_setRoleAdmin}."
      },
      "getRoleMember(bytes32,uint256)": {
        "details": "Returns one of the accounts that have `role`. `index` must be a value between 0 and {getRoleMemberCount}, non-inclusive. Role bearers are not sorted in any particular way, and their ordering may change at any point. WARNING: When using {getRoleMember} and {getRoleMemberCount}, make sure you perform all queries on the same block. See the following https://forum.openzeppelin.com/t/iterating-over-elements-on-enumerableset-in-openzeppelin-contracts/2296[forum post] for more information."
      },
      "getRoleMemberCount(bytes32)": {
        "details": "Returns the number of accounts that have `role`. Can be used together with {getRoleMember} to enumerate all bearers of a role."
      },
      "grantRole(bytes32,address)": {
        "details": "Grants `role` to `account`. If `account` had not been already granted `role`, emits a {RoleGranted} event. Requirements: - the caller must have ``role``'s admin role. May emit a {RoleGranted} event."
      },
      "hasRole(bytes32,address)": {
        "details": "Returns `true` if `account` has been granted `role`."
      },
      "initialize(address)": {
        "details": "fully initializes the contract and its parents"
      },
      "postUpgrade(bool,bytes)": {
        "details": "performs post-upgrade initialization requirements: - this must and can be called only once per-upgrade"
      },
      "renounceRole(bytes32,address)": {
        "details": "Revokes `role` from the calling account. Roles are often managed via {grantRole} and {revokeRole}: this function's purpose is to provide a mechanism for accounts to lose their privileges if they are compromised (such as when a trusted device is misplaced). If the calling account had been revoked `role`, emits a {RoleRevoked} event. Requirements: - the caller must be `account`. May emit a {RoleRevoked} event."
      },
      "revokeRole(bytes32,address)": {
        "details": "Revokes `role` from `account`. If `account` had been granted `role`, emits a {RoleRevoked} event. Requirements: - the caller must have ``role``'s admin role. May emit a {RoleRevoked} event."
      },
      "roleAdmin()": {
        "details": "returns the admin role"
      },
      "supportsInterface(bytes4)": {
        "details": "See {IERC165-supportsInterface}."
      },
      "withdrawFunds(address[],address,uint256[])": {
        "details": "withdraws funds held by the contract and sends them to an account requirements: - the caller must be the admin of the contract"
      }
    },
    "version": 1
  },
  "userdoc": {
    "events": {
      "FundsWithdrawn(address[],address,address,uint256[])": {
        "notice": "triggered when tokens have been withdrawn by the admin"
      },
      "MaxTargetTokenSaleAmountUpdated(uint128,uint128)": {
        "notice": "triggered when the target token sale amount is updated"
      },
      "MinTokenSaleAmountMultiplierUpdated(uint32,uint32)": {
        "notice": "Triggered when the minimum token sale amount multiplier is updated"
      },
      "MinTokenSaleAmountUpdated(address,uint128,uint128)": {
        "notice": "triggered when the min token sale amount is updated"
      },
      "PairDisabledStatusUpdated(address,bool,bool)": {
        "notice": "triggered when pair status is updated"
      },
      "PriceDecayHalfLifeUpdated(uint32,uint32)": {
        "notice": "triggered when the price decay halflife is updated (for all tokens except the target token)"
      },
      "PriceResetMultiplierUpdated(uint32,uint32)": {
        "notice": "triggered when the price reset multiplier is updated"
      },
      "PriceUpdated(address,(uint128,uint128))": {
        "notice": "triggered after the price updates for a token"
      },
      "RewardsUpdated(uint32,uint32)": {
        "notice": "triggered when the rewards ppm are updated"
      },
      "TargetTokenPriceDecayHalfLifeOnResetUpdated(uint32,uint32)": {
        "notice": "triggered when the price decay halflife on price reset is updated (for the target token only)"
      },
      "TargetTokenPriceDecayHalfLifeUpdated(uint32,uint32)": {
        "notice": "triggered when the price decay halflife is updated (for the target token only)"
      },
      "TokenTraded(address,address,uint128,uint128)": {
        "notice": "triggered after a successful trade is executed"
      },
      "TradingReset(address,(uint128,uint128))": {
        "notice": "triggered when trading is reset for a token (dutch auction has been restarted)"
      },
      "TransferAddressUpdated(address,address)": {
        "notice": "triggered when the transfer address is updated"
      }
    },
    "kind": "user",
    "methods": {
      "amountAvailableForTrading(address)": {
        "notice": "returns the amount available for trading for the token"
      },
      "availableTokens(address)": {
        "notice": "returns the total available fees for the given token"
      },
      "disablePair(address,bool)": {
        "notice": "sets if trading is enabled or disabled for a token requirements: - the caller must be the admin of the contract"
      },
      "execute(address[])": {
        "notice": "withdraws the fees of the provided token from Carbon andenables trading for the token if not already enabled"
      },
      "expectedTradeInput(address,uint128)": {
        "notice": "returns the source amount required given a target amount"
      },
      "expectedTradeReturn(address,uint128)": {
        "notice": "returns the target amount expected given a source amount"
      },
      "finalTargetToken()": {
        "notice": "returns the final target token"
      },
      "minTargetTokenSaleAmount()": {
        "notice": "returns the min target token sale amount"
      },
      "minTokenSaleAmount(address)": {
        "notice": "returns the min token sale amount"
      },
      "minTokenSaleAmountMultiplier()": {
        "notice": "returns the min token sale amount multiplier"
      },
      "pairDisabled(address)": {
        "notice": "returns true if pair is disabled (admin-controllable)"
      },
      "priceDecayHalfLife()": {
        "notice": "returns the price decay half-life for all tokens except the target tokenaccording to the exp decay formula"
      },
      "priceResetMultiplier()": {
        "notice": "returns the price reset multiplier"
      },
      "rewardsPPM()": {
        "notice": "returns the rewards ppm"
      },
      "setMaxTargetTokenSaleAmount(uint128)": {
        "notice": "sets the max (or initial) target token sale amount requirements: - the caller must be the admin of the contract"
      },
      "setMinTargetTokenSaleAmount(uint128)": {
        "notice": "sets the min target token sale amount requirements: - the caller must be the admin of the contract"
      },
      "setMinTokenSaleAmountMultiplier(uint32)": {
        "notice": "sets the minimum token sale amount multiplier Requirements: - The caller must be the admin of the contract."
      },
      "setPriceDecayHalfLife(uint32)": {
        "notice": "sets the price decay half-life for all tokens except target requirements: - the caller must be the admin of the contract"
      },
      "setPriceResetMultiplier(uint32)": {
        "notice": "sets the price reset multiplier requirements: - the caller must be the admin of the contract"
      },
      "setRewardsPPM(uint32)": {
        "notice": "sets the rewards ppm requirements: - the caller must be the admin of the contract"
      },
      "setTargetTokenPriceDecayHalfLife(uint32)": {
        "notice": "sets the price decay half-life for the target token requirements: - the caller must be the admin of the contract"
      },
      "setTargetTokenPriceDecayHalfLifeOnReset(uint32)": {
        "notice": "sets the price decay half-life for the target token on reset Requirements: - The caller must be the admin of the contract."
      },
      "setTransferAddress(address)": {
        "notice": "sets the transfer address requirements: - the caller must be the current admin of the contract"
      },
      "targetToken()": {
        "notice": "returns the target token"
      },
      "targetTokenPriceDecayHalfLife()": {
        "notice": "returns the price decay half-life for the target token according to the exp decay formula"
      },
      "targetTokenPriceDecayHalfLifeOnReset()": {
        "notice": "returns the price decay half-life for the target token on reset (slow) according to the exp decay formula"
      },
      "targetTokenSaleAmount()": {
        "notice": "returns the initial and current target token sale amount"
      },
      "tokenPrice(address)": {
        "notice": "returns the current token price (targetToken / TKN)if token == targetToken, returns finalTargetToken / targetToken price"
      },
      "totalCollected()": {
        "notice": "returns the total target (if no final target token has been defined) or final target tokens collected "
      },
      "trade(address,uint128,uint128)": {
        "notice": "trades *targetToken* for *targetAmount* of *token* based on the current token price (trade by target amount)if token == *targetToken*, trades *finalTargetToken* for amount of *targetToken* and alsoresets the current token sale amount if it's below the min amount after a tradereverts if source amount required is greater than maxInput"
      },
      "tradingEnabled(address)": {
        "notice": "returns true if trading is enabled for token (dutch auction started)"
      },
      "transferAddress()": {
        "notice": "returns the transfer address"
      }
    },
    "notice": "CarbonVortex contract",
    "version": 1
  },
  "storageLayout": {
    "storage": [
      {
        "astId": 588,
        "contract": "contracts/vortex/CarbonVortex.sol:CarbonVortex",
        "label": "_initialized",
        "offset": 0,
        "slot": "0",
        "type": "t_uint8"
      },
      {
        "astId": 591,
        "contract": "contracts/vortex/CarbonVortex.sol:CarbonVortex",
        "label": "_initializing",
        "offset": 1,
        "slot": "0",
        "type": "t_bool"
      },
      {
        "astId": 2318,
        "contract": "contracts/vortex/CarbonVortex.sol:CarbonVortex",
        "label": "__gap",
        "offset": 0,
        "slot": "1",
        "type": "t_array(t_uint256)50_storage"
      },
      {
        "astId": 2591,
        "contract": "contracts/vortex/CarbonVortex.sol:CarbonVortex",
        "label": "__gap",
        "offset": 0,
        "slot": "51",
        "type": "t_array(t_uint256)50_storage"
      },
      {
        "astId": 184,
        "contract": "contracts/vortex/CarbonVortex.sol:CarbonVortex",
        "label": "_roles",
        "offset": 0,
        "slot": "101",
        "type": "t_mapping(t_bytes32,t_struct(RoleData)179_storage)"
      },
      {
        "astId": 479,
        "contract": "contracts/vortex/CarbonVortex.sol:CarbonVortex",
        "label": "__gap",
        "offset": 0,
        "slot": "102",
        "type": "t_array(t_uint256)49_storage"
      },
      {
        "astId": 33,
        "contract": "contracts/vortex/CarbonVortex.sol:CarbonVortex",
        "label": "_roleMembers",
        "offset": 0,
        "slot": "151",
        "type": "t_mapping(t_bytes32,t_struct(AddressSet)3901_storage)"
      },
      {
        "astId": 143,
        "contract": "contracts/vortex/CarbonVortex.sol:CarbonVortex",
        "label": "__gap",
        "offset": 0,
        "slot": "152",
        "type": "t_array(t_uint256)49_storage"
      },
      {
        "astId": 22345,
        "contract": "contracts/vortex/CarbonVortex.sol:CarbonVortex",
        "label": "_initializations",
        "offset": 0,
        "slot": "201",
        "type": "t_uint16"
      },
      {
        "astId": 22351,
        "contract": "contracts/vortex/CarbonVortex.sol:CarbonVortex",
        "label": "__gap",
        "offset": 0,
        "slot": "202",
        "type": "t_array(t_uint256)49_storage"
      },
      {
        "astId": 764,
        "contract": "contracts/vortex/CarbonVortex.sol:CarbonVortex",
        "label": "_status",
        "offset": 0,
        "slot": "251",
        "type": "t_uint256"
      },
      {
        "astId": 833,
        "contract": "contracts/vortex/CarbonVortex.sol:CarbonVortex",
        "label": "__gap",
        "offset": 0,
        "slot": "252",
        "type": "t_array(t_uint256)49_storage"
      },
      {
        "astId": 22750,
        "contract": "contracts/vortex/CarbonVortex.sol:CarbonVortex",
        "label": "_totalCollected",
        "offset": 0,
        "slot": "301",
        "type": "t_uint256"
      },
      {
        "astId": 22752,
        "contract": "contracts/vortex/CarbonVortex.sol:CarbonVortex",
        "label": "_rewardsPPM",
        "offset": 0,
        "slot": "302",
        "type": "t_uint32"
      },
      {
        "astId": 22754,
        "contract": "contracts/vortex/CarbonVortex.sol:CarbonVortex",
        "label": "_priceResetMultiplier",
        "offset": 4,
        "slot": "302",
        "type": "t_uint32"
      },
      {
        "astId": 22756,
        "contract": "contracts/vortex/CarbonVortex.sol:CarbonVortex",
        "label": "_minTokenSaleAmountMultiplier",
        "offset": 8,
        "slot": "302",
        "type": "t_uint32"
      },
      {
        "astId": 22758,
        "contract": "contracts/vortex/CarbonVortex.sol:CarbonVortex",
        "label": "_targetTokenPriceDecayHalfLife",
        "offset": 12,
        "slot": "302",
        "type": "t_uint32"
      },
      {
        "astId": 22760,
        "contract": "contracts/vortex/CarbonVortex.sol:CarbonVortex",
        "label": "_targetTokenPriceDecayHalfLifeOnReset",
        "offset": 16,
        "slot": "302",
        "type": "t_uint32"
      },
      {
        "astId": 22762,
        "contract": "contracts/vortex/CarbonVortex.sol:CarbonVortex",
        "label": "_priceDecayHalfLife",
        "offset": 20,
        "slot": "302",
        "type": "t_uint32"
      },
      {
        "astId": 22767,
        "contract": "contracts/vortex/CarbonVortex.sol:CarbonVortex",
        "label": "_disabledPairs",
        "offset": 0,
        "slot": "303",
        "type": "t_mapping(t_userDefinedValueType(Token)19815,t_bool)"
      },
      {
        "astId": 22772,
        "contract": "contracts/vortex/CarbonVortex.sol:CarbonVortex",
        "label": "_tradingStartTimes",
        "offset": 0,
        "slot": "304",
        "type": "t_mapping(t_userDefinedValueType(Token)19815,t_uint32)"
      },
      {
        "astId": 22778,
        "contract": "contracts/vortex/CarbonVortex.sol:CarbonVortex",
        "label": "_initialPrice",
        "offset": 0,
        "slot": "305",
        "type": "t_mapping(t_userDefinedValueType(Token)19815,t_struct(Price)25095_storage)"
      },
      {
        "astId": 22783,
        "contract": "contracts/vortex/CarbonVortex.sol:CarbonVortex",
        "label": "_minTokenSaleAmounts",
        "offset": 0,
        "slot": "306",
        "type": "t_mapping(t_userDefinedValueType(Token)19815,t_uint128)"
      },
      {
        "astId": 22786,
        "contract": "contracts/vortex/CarbonVortex.sol:CarbonVortex",
        "label": "_targetTokenSaleAmount",
        "offset": 0,
        "slot": "307",
        "type": "t_struct(SaleAmount)25100_storage"
      },
      {
        "astId": 22788,
        "contract": "contracts/vortex/CarbonVortex.sol:CarbonVortex",
        "label": "_transferAddress",
        "offset": 0,
        "slot": "308",
        "type": "t_address_payable"
      },
      {
        "astId": 22794,
        "contract": "contracts/vortex/CarbonVortex.sol:CarbonVortex",
        "label": "__gap",
        "offset": 0,
        "slot": "309",
        "type": "t_array(t_uint256)42_storage"
      }
    ],
    "types": {
      "t_address": {
        "encoding": "inplace",
        "label": "address",
        "numberOfBytes": "20"
      },
      "t_address_payable": {
        "encoding": "inplace",
        "label": "address payable",
        "numberOfBytes": "20"
      },
      "t_array(t_bytes32)dyn_storage": {
        "base": "t_bytes32",
        "encoding": "dynamic_array",
        "label": "bytes32[]",
        "numberOfBytes": "32"
      },
      "t_array(t_uint256)42_storage": {
        "base": "t_uint256",
        "encoding": "inplace",
        "label": "uint256[42]",
        "numberOfBytes": "1344"
      },
      "t_array(t_uint256)49_storage": {
        "base": "t_uint256",
        "encoding": "inplace",
        "label": "uint256[49]",
        "numberOfBytes": "1568"
      },
      "t_array(t_uint256)50_storage": {
        "base": "t_uint256",
        "encoding": "inplace",
        "label": "uint256[50]",
        "numberOfBytes": "1600"
      },
      "t_bool": {
        "encoding": "inplace",
        "label": "bool",
        "numberOfBytes": "1"
      },
      "t_bytes32": {
        "encoding": "inplace",
        "label": "bytes32",
        "numberOfBytes": "32"
      },
      "t_mapping(t_address,t_bool)": {
        "encoding": "mapping",
        "key": "t_address",
        "label": "mapping(address => bool)",
        "numberOfBytes": "32",
        "value": "t_bool"
      },
      "t_mapping(t_bytes32,t_struct(AddressSet)3901_storage)": {
        "encoding": "mapping",
        "key": "t_bytes32",
        "label": "mapping(bytes32 => struct EnumerableSetUpgradeable.AddressSet)",
        "numberOfBytes": "32",
        "value": "t_struct(AddressSet)3901_storage"
      },
      "t_mapping(t_bytes32,t_struct(RoleData)179_storage)": {
        "encoding": "mapping",
        "key": "t_bytes32",
        "label": "mapping(bytes32 => struct AccessControlUpgradeable.RoleData)",
        "numberOfBytes": "32",
        "value": "t_struct(RoleData)179_storage"
      },
      "t_mapping(t_bytes32,t_uint256)": {
        "encoding": "mapping",
        "key": "t_bytes32",
        "label": "mapping(bytes32 => uint256)",
        "numberOfBytes": "32",
        "value": "t_uint256"
      },
      "t_mapping(t_userDefinedValueType(Token)19815,t_bool)": {
        "encoding": "mapping",
        "key": "t_userDefinedValueType(Token)19815",
        "label": "mapping(Token => bool)",
        "numberOfBytes": "32",
        "value": "t_bool"
      },
      "t_mapping(t_userDefinedValueType(Token)19815,t_struct(Price)25095_storage)": {
        "encoding": "mapping",
        "key": "t_userDefinedValueType(Token)19815",
        "label": "mapping(Token => struct ICarbonVortex.Price)",
        "numberOfBytes": "32",
        "value": "t_struct(Price)25095_storage"
      },
      "t_mapping(t_userDefinedValueType(Token)19815,t_uint128)": {
        "encoding": "mapping",
        "key": "t_userDefinedValueType(Token)19815",
        "label": "mapping(Token => uint128)",
        "numberOfBytes": "32",
        "value": "t_uint128"
      },
      "t_mapping(t_userDefinedValueType(Token)19815,t_uint32)": {
        "encoding": "mapping",
        "key": "t_userDefinedValueType(Token)19815",
        "label": "mapping(Token => uint32)",
        "numberOfBytes": "32",
        "value": "t_uint32"
      },
      "t_struct(AddressSet)3901_storage": {
        "encoding": "inplace",
        "label": "struct EnumerableSetUpgradeable.AddressSet",
        "members": [
          {
            "astId": 3900,
            "contract": "contracts/vortex/CarbonVortex.sol:CarbonVortex",
            "label": "_inner",
            "offset": 0,
            "slot": "0",
            "type": "t_struct(Set)3586_storage"
          }
        ],
        "numberOfBytes": "64"
      },
      "t_struct(Price)25095_storage": {
        "encoding": "inplace",
        "label": "struct ICarbonVortex.Price",
        "members": [
          {
            "astId": 25092,
            "contract": "contracts/vortex/CarbonVortex.sol:CarbonVortex",
            "label": "sourceAmount",
            "offset": 0,
            "slot": "0",
            "type": "t_uint128"
          },
          {
            "astId": 25094,
            "contract": "contracts/vortex/CarbonVortex.sol:CarbonVortex",
            "label": "targetAmount",
            "offset": 16,
            "slot": "0",
            "type": "t_uint128"
          }
        ],
        "numberOfBytes": "32"
      },
      "t_struct(RoleData)179_storage": {
        "encoding": "inplace",
        "label": "struct AccessControlUpgradeable.RoleData",
        "members": [
          {
            "astId": 176,
            "contract": "contracts/vortex/CarbonVortex.sol:CarbonVortex",
            "label": "members",
            "offset": 0,
            "slot": "0",
            "type": "t_mapping(t_address,t_bool)"
          },
          {
            "astId": 178,
            "contract": "contracts/vortex/CarbonVortex.sol:CarbonVortex",
            "label": "adminRole",
            "offset": 0,
            "slot": "1",
            "type": "t_bytes32"
          }
        ],
        "numberOfBytes": "64"
      },
      "t_struct(SaleAmount)25100_storage": {
        "encoding": "inplace",
        "label": "struct ICarbonVortex.SaleAmount",
        "members": [
          {
            "astId": 25097,
            "contract": "contracts/vortex/CarbonVortex.sol:CarbonVortex",
            "label": "initial",
            "offset": 0,
            "slot": "0",
            "type": "t_uint128"
          },
          {
            "astId": 25099,
            "contract": "contracts/vortex/CarbonVortex.sol:CarbonVortex",
            "label": "current",
            "offset": 16,
            "slot": "0",
            "type": "t_uint128"
          }
        ],
        "numberOfBytes": "32"
      },
      "t_struct(Set)3586_storage": {
        "encoding": "inplace",
        "label": "struct EnumerableSetUpgradeable.Set",
        "members": [
          {
            "astId": 3581,
            "contract": "contracts/vortex/CarbonVortex.sol:CarbonVortex",
            "label": "_values",
            "offset": 0,
            "slot": "0",
            "type": "t_array(t_bytes32)dyn_storage"
          },
          {
            "astId": 3585,
            "contract": "contracts/vortex/CarbonVortex.sol:CarbonVortex",
            "label": "_indexes",
            "offset": 0,
            "slot": "1",
            "type": "t_mapping(t_bytes32,t_uint256)"
          }
        ],
        "numberOfBytes": "64"
      },
      "t_uint128": {
        "encoding": "inplace",
        "label": "uint128",
        "numberOfBytes": "16"
      },
      "t_uint16": {
        "encoding": "inplace",
        "label": "uint16",
        "numberOfBytes": "2"
      },
      "t_uint256": {
        "encoding": "inplace",
        "label": "uint256",
        "numberOfBytes": "32"
      },
      "t_uint32": {
        "encoding": "inplace",
        "label": "uint32",
        "numberOfBytes": "4"
      },
      "t_uint8": {
        "encoding": "inplace",
        "label": "uint8",
        "numberOfBytes": "1"
      },
      "t_userDefinedValueType(Token)19815": {
        "encoding": "inplace",
        "label": "Token",
        "numberOfBytes": "20"
      }
    }
  }
}